:020000020000FC
:0200000020C01E
:02000400B2C088
:100040009FC008E00EBF0FEF0DBF0BEF0AB904E031
:100050000BB90FE004B907E005B903E005BD01E005
:1000600000936E0020E030E040E050E060E002E00D
:100070000093690001E00DBB7894DAEF67D0DAEF06
:1000800065D001E00CBB213009F0FDCF05B1077F41
:1000900005B916B51333B0F0012F53D0A02F012F9F
:1000A0007BE2070F4ED0B02F012F7BE6070F49D020
:1000B000C02FAB1761F4BC1751F4C3950C2F41D07E
:1000C000C02F05C0012F3DD0A02FB02FC02FD8E0EA
:1000D0009EE143954A3009F440E053955A3009F4C3
:1000E00050E063956A3009F460E030D0D3959A957A
:1000F00081F74A2F94E153955A3009F450E0639503
:100100006A3009F460E022D0D395D3959A9599F797
:100110005B2F9CE063956A3009F460E017D0D395BB
:10012000D395D395D3959A95A9F76C2F451729F4B4
:10013000561719F405B1086005B920E001E00CBBC1
:10014000A2CF0A3010F00A50FCCF0895DF931F931E
:100150000F9315E10AEF0A95F1F71A95D9F7DA9599
:10016000C1F70F911F91DF9108950F930FB70F9370
:1001700001E0203009F4202F0F910FBF0F91189547
:100180000F930FB70F931F93EF93FF9310E005B1F9
:10019000076005B9E2EEF1E0303059F0313091F00E
:1001A000E60FF11F04910BB905B10B7F05B930E0E3
:1001B00011C0E40FF11F04910BB905B10E7F05B911
:1001C00031E008C0E50FF11F04910BB905B10D7FB7
:1001D00005B932E0FF91EF911F910F910FBF0F9181
:0C01E0001895059F260E9C4C441F040C33
:00000001FF