:020000020000FC
:0200000020C01E
:0200040092C0A8
:1000400043C008E00EBF0FEF0DBF0BEF0AB904E08D
:100050000BB90FE004B907E005B903E005BD01E005
:1000600000936E0020E030E040E050E060E080E08F
:1000700003E00093690001E00DBB7894DAEF15D03E
:10008000DAEF13D001E00CBB213009F459C0823003
:10009000D9F7D4E60AD005B118E0012705B9F4CFA5
:1000A000059F260E9C4C441F040CDF931F930F9357
:1000B00015E10AEF0A95F1F71A95D9F7DA95C1F724
:1000C0000F911F91DF9108950F930FB70F931F9317
:1000D000EF93FF9310E005B1076005B9E0EAF0E0A7
:1000E000303059F0313091F0E60FF11F04910BB927
:1000F00005B10B7F05B930E011C0E40FF11F049189
:100100000BB905B10E7F05B931E008C0E50FF11F4D
:1001100004910BB905B10D7F05B932E0FF91EF9164
:100120001F910F910FBF0F9118950F930FB70F935A
:1001300001E0203009F4202F0F910FBF0F91189587
:1001400005B1077F05B980E018B5133318F01636EE
:1001500038F010C007E0A02FB02FC02F82E020C0E1
:10016000012F56D0073009F408E0A02FB02FC02F80
:1001700081E016C0012F4CD0A02F012F7BE2070F8A
:1001800047D0B02F012F7BE6070F42D0C02FAB170F
:1001900039F4BC1729F4C3950C2F3AD0C02F00C0F6
:1001A000D8E09EE143954A3009F440E053955A3037
:1001B00009F450E063956A3009F460E076DFD39586
:1001C0009A9581F74A2F94E153955A3009F450E0FB
:1001D00063956A3009F460E068DFD395D3959A950A
:1001E00099F75B2F9CE063956A3009F460E05DDF6E
:1001F000D395D395D395D3959A95A9F76C2F813044
:1002000019F405B1086005B920E001E00CBB3CCF52
:0A0210000A3010F00A50FCCF0895E8
:00000001FF
