:020000020000FC
:0200000020C01E
:0200040096C0A4
:1000400047C008E00EBF0FEF0DBF0BEF0AB904E089
:100050000BB90FE004B907E005B903E005BD01E005
:1000600000936E0001E00093810003E000936900BB
:1000700001E00DBB30E04AE05AE06AE080E07894AD
:10008000DAEF17D0DAEF15D020E001E00CBB213019
:1000900009F45AC08230D9F7D4E60BD005B118E084
:1000A000012705B9F4CF059F260E9C4C441F040C74
:1000B000FE00DF931F930F9315E10AEF0A95F1F706
:1000C0001A95D9F7DA95C1F70F911F91DF9108952D
:1000D0000F930FB70F931F93EF93FF9310E005B1AA
:1000E000076005B9E6EAF0E0303059F0313091F0C0
:1000F000E60FF11F04910BB905B10B7F05B930E094
:1001000011C0E40FF11F04910BB905B10E7F05B9C1
:1001100031E008C0E50FF11F04910BB905B10D7F67
:1001200005B932E0FF91EF911F910F910FBF0F9131
:1001300018950F930FB70F9301E0203009F4202F8B
:100140000F910FBF0F91189505B1077F05B980E09A
:1001500016B51D3018F0133338F010C007E0A02F8B
:10016000B02FC02F82E022C0012F58D0073009F4F1
:1001700008E0A02FB02FC02F81E018C0A09084000D
:10018000B0908500C09084000A2D48D0A02F0B2D80
:1001900045D0B02F0C2D42D0C02FAB1739F4BC176F
:1001A00029F4C3950C2F3AD0C02F00C0D8E07EE1CF
:1001B00043954A3009F440E053955A3009F450E031
:1001C00063956A3009F460E074DFD3957A9581F71E
:1001D0004A2F74E153955A3009F450E063956A3020
:1001E00009F460E066DFD395D3957A9599F75B2F94
:1001F0007CE063956A3009F460E05BDFD395D395CA
:10020000D395D3957A95A9F76C2F813019F405B160
:10021000086005B920E001E00CBB39CF0A3010F0CE
:060220000A50FCCF089516
:00000001FF
