:020000020000FC
:0200000020C01E
:0200040093C0A7
:1000400044C008E00EBF0FEF0DBF0BEF0AB904E08C
:100050000BB90FE004B907E005B903E005BD01E005
:1000600000936E0020E030E040E050E060E080E08F
:1000700003E00093690001E00DBB7894DAEF16D03D
:10008000DAEF14D001E00CBB213009F45AC0823001
:10009000D9F7D4E60BD005B118E0012705B9F4CFA4
:1000A000059F260E9C4C441F040CFE00DF931F93FB
:1000B0000F9315E10AEF0A95F1F71A95D9F7DA953A
:1000C000C1F70F911F91DF9108950F930FB70F9311
:1000D0001F93EF93FF9310E005B1076005B9E0EAC5
:1000E000F0E0303059F0313091F0E60FF11F04911B
:1000F0000BB905B10B7F05B930E011C0E40FF11F5A
:1001000004910BB905B10E7F05B931E008C0E50FC8
:10011000F11F04910BB905B10D7F05B932E0FF91D4
:10012000EF911F910F910FBF0F9118950F930FB77C
:100130000F9301E0203009F4202F0F910FBF0F9192
:10014000189505B1077F05B980E016B5133318F08F
:10015000163638F010C007E0A02FB02FC02F82E075
:1001600020C0012F56D0073009F408E0A02FB02F8F
:10017000C02F81E016C0012F4CD0A02F012F9BE291
:10018000090F47D0B02F012F9BE6090F42D0C02F97
:10019000AB1739F4BC1729F4C3950C2F3AD0C02FF4
:1001A00000C0D8E07EE143954A3009F440E0539521
:1001B0005A3009F450E063956A3009F460E076DF64
:1001C000D3957A9581F74A2F74E153955A3009F403
:1001D00050E063956A3009F460E068DFD395D39509
:1001E0007A9599F75B2F7CE063956A3009F460E0BB
:1001F0005DDFD395D395D395D3957A95A9F76C2FD9
:10020000813019F405B1086005B920E001E00CBBAC
:0C0210003BCF0A3010F00A50FCCF0895DC
:00000001FF
